:1000000094b4671494b4641595b5611696b66319e3
:1000100099b96319611a99ba631795b4641894b4bd
:100020006600010203040506070897b7660998b839
:10003000660b98b6630a8a0a8a0a98b8660c94b462
:10004000660d94b4660e0f1095b56611128aab69f1
:0b0050003ab5610a60198bb961fa0b28
:1018000094b4660e8aab693ab5610a60198bb96106
:02181000fa0bd1
:102500008aab693eb5610a60198bb9610b9ea36104
:102510001e601984b9611f9ebf743d80bd61000fac
:102520001094b1c78aab693ab5610a60198bb96179
:10253000fa0b6060606060609eb5611e601999bfb3
:102540001f9ebf743d81bd6101601981ae61010fa5
:1025500010601a99ba660e80a166108aab693ab506
:09256000610a60198bb961fa0be4
:102900008aab693db5610a60198bb9610b80bd6105
:10291000000f1094b1c58aab693ab5610a60198b92
:10292000b961fa0b606060608aab693db5610a60ad
:10293000198bb9610b81bd6101601981ae61010f15
:1029400010601a99ba660e80a166108aab693ab512
:09295000610a60198bb961fa0bf0
:1038000095b5660e8aab693ab5610a60198bb961e4
:02381000fa0bb1
:105c00008aab693ab5610a60198bb9610b8aab69d5
:105c10003bb5610a60198bb9610b8aab6929b56123
:105c20000a60198bb9610b9aba660a9bbb660b8a2c
:0d5c3000ab693ab5610a60198bb961fa0bd6
:106900008aab693db5610a60198bb9610b80bd61c5
:1069100000601980ae61000f10601a99ba660e947b
:10692000b1c68aab693ab5610a60198bb961fa0bd5
:106930008aab693db5610a60198bb9610b81bd6194
:1069400001601981ae61010f10601a99ba660e805c
:10695000a166108aab693ab5610a60198bb961fa10
:016960000b2b
:108500008aab693eb5610a60198bb9610b9ea361a4
:108510001e601984b9611f9ebf744094b1c68aabb6
:10852000693ab5610a60198bb961fa0b60606060e5
:108530009eb5611e601999bf1f9ebf74418aab69c9
:0b8540003ab5610a60198bb961fa0bb3
:108f00008aab693eb5610a60198bb9610b8aab699e
:108f10003fb5610a60198bb9610b8aab693db561d8
:108f20000a60198bb9610b9ebf7d4094b1c88aabb2
:108f3000693ab5610a60198bb961fa0b60606060cb
:108f40009eb5611e601999bf1f9ebf7d418aab69a6
:0b8f50003ab5610a60198bb961fa0b99
:10a000008aab6927b5610a60198bb9610b94b2c438
:10a010008aab693ab5610a60198bb961fa0b606065
:10a020008aab6928b5610a60198bb9610b8aab6983
:0ba030003ab5610a60198bb961fa0ba8
:10a200008aab6925b5610a60198bb9610b94b2c438
:10a210008aab693ab5610a60198bb961fa0b606063
:10a220008aab6926b5610a60198bb9610b8aab6983
:0ba230003ab5610a60198bb961fa0ba6
:10a500008aab693eb5610a60198bb9610b9ea36184
:10a510001e601984b9611f9ebf742094b1c68aabb6
:10a52000693ab5610a60198bb961fa0b60606060c5
:10a530009eb5611e601999bf1f9ebf74218aab69c9
:0ba540003ab5610a60198bb961fa0b93
:10a900008aab6920b5610a60198bb9610b94b1c437
:10a910008aab693ab5610a60198bb961fa0b60605c
:10a920008aab6921b5610a60198bb9610b8aab6981
:0ba930003ab5610a60198bb961fa0b9f
:10aa000094b2c380a066058aab693ab5610a601941
:10aa10008bb961fa0b60606094b1c780a066059441
:10aa2000b466068aab693ab5610a60198bb961faf6
:10aa30000b6060606060606080a0660581a1660652
:0eaa40008aab693ab5610a60198bb961fa0bed
:10af00008aab693eb5610a60198bb9610b8aab697e
:10af10003fb5610a60198bb9610b8aab693db561b8
:10af20000a60198bb9610b9ebf7d2094b1c88aabb2
:10af3000693ab5610a60198bb961fa0b60606060ab
:10af40009eb5611e601999bf1f9ebf7d218aab69a6
:0baf50003ab5610a60198bb961fa0b79
:10bf00008aab693eb5610a60198bb9610b8aab696e
:10bf10003fb5610a60198bb9610b9ea5611e60195e
:10bf20009fa6611f9fb91f8aab693db5610a601961
:10bf30008bb9610b9ebf7d2094b1ca8aab693ab5bb
:10bf4000610a60198bb961fa0b60606060606060c3
:10bf50009eb5611e601999bf1f9ebf7d218aab6986
:0bbf60003ab5610a60198bb961fa0b59
:10c8000087b56107100f601d94b2c48aab693ab551
:10c81000610a60198bb961fa0b60606060606060ea
:10c8200088bd61080f87a866108aab693ab5610aae
:07c8300060198bb961fa0bde
:10d0000090b4c78aab693cb5610a60198bb9610bf2
:10d010009cb7641d9db8631d8abc610a60198bbdf5
:10d02000610b8bb90b8aab693ab5610a60198bb990
:10d0300061fa0b60606060608ab5610a601999ab43
:0fd040000b8aab693ab5610a60198bb961fa0bbb
:10e8000085b56105100f601d94b2c48aab693ab535
:10e81000610a60198bb961fa0b60606060606060ca
:10e8200086bd61060f85a666108aab693ab5610a96
:07e8300060198bb961fa0bbe
:10e900008aab693db5610a60198bb9610b9db86727
:10e910001980b96100601980ae61000f10601a990a
:10e92000ba660e94b1c78aab693ab5610a60198bb1
:10e93000b961fa0b606060608aab693db5610a60dd
:10e94000198bb9610b9db8671981b9610160198193
:10e95000ae61010f10601a99ba660e80a166108a26
:0de96000ab693ab5610a60198bb961fa0b19
:10fb000094b4660e8aab693ab5610a60198bb96123
:02fb1000fa0bee
:00000001ff
